{
  "contractName": "Docs",
  "abi": [
    {
      "constant": true,
      "inputs": [
        {
          "name": "",
          "type": "uint256"
        }
      ],
      "name": "docs",
      "outputs": [
        {
          "name": "name",
          "type": "string"
        },
        {
          "name": "timestamp",
          "type": "string"
        },
        {
          "name": "hash",
          "type": "string"
        }
      ],
      "payable": false,
      "stateMutability": "view",
      "type": "function",
      "signature": "0x23389c5a"
    },
    {
      "constant": true,
      "inputs": [],
      "name": "id",
      "outputs": [
        {
          "name": "",
          "type": "uint256"
        }
      ],
      "payable": false,
      "stateMutability": "view",
      "type": "function",
      "signature": "0xaf640d0f"
    },
    {
      "constant": false,
      "inputs": [
        {
          "name": "_name",
          "type": "string"
        },
        {
          "name": "_timestamp",
          "type": "string"
        },
        {
          "name": "_hash",
          "type": "string"
        }
      ],
      "name": "createDoc",
      "outputs": [],
      "payable": false,
      "stateMutability": "nonpayable",
      "type": "function",
      "signature": "0xe7f578e1"
    }
  ],
  "bytecode": "0x608060405234801561001057600080fd5b50610799806100206000396000f3fe608060405260043610610057576000357c0100000000000000000000000000000000000000000000000000000000900463ffffffff16806323389c5a1461005c578063af640d0f146101e8578063e7f578e114610213575b600080fd5b34801561006857600080fd5b506100956004803603602081101561007f57600080fd5b8101908080359060200190929190505050610409565b60405180806020018060200180602001848103845287818151815260200191508051906020019080838360005b838110156100dd5780820151818401526020810190506100c2565b50505050905090810190601f16801561010a5780820380516001836020036101000a031916815260200191505b50848103835286818151815260200191508051906020019080838360005b83811015610143578082015181840152602081019050610128565b50505050905090810190601f1680156101705780820380516001836020036101000a031916815260200191505b50848103825285818151815260200191508051906020019080838360005b838110156101a957808201518184015260208101905061018e565b50505050905090810190601f1680156101d65780820380516001836020036101000a031916815260200191505b50965050505050505060405180910390f35b3480156101f457600080fd5b506101fd61060a565b6040518082815260200191505060405180910390f35b34801561021f57600080fd5b506104076004803603606081101561023657600080fd5b810190808035906020019064010000000081111561025357600080fd5b82018360208201111561026557600080fd5b8035906020019184600183028401116401000000008311171561028757600080fd5b91908080601f016020809104026020016040519081016040528093929190818152602001838380828437600081840152601f19601f820116905080830192505050505050509192919290803590602001906401000000008111156102ea57600080fd5b8201836020820111156102fc57600080fd5b8035906020019184600183028401116401000000008311171561031e57600080fd5b91908080601f016020809104026020016040519081016040528093929190818152602001838380828437600081840152601f19601f8201169050808301925050505050505091929192908035906020019064010000000081111561038157600080fd5b82018360208201111561039357600080fd5b803590602001918460018302840111640100000000831117156103b557600080fd5b91908080601f016020809104026020016040519081016040528093929190818152602001838380828437600081840152601f19601f820116905080830192505050505050509192919290505050610610565b005b60018181548110151561041857fe5b9060005260206000209060030201600091509050806000018054600181600116156101000203166002900480601f0160208091040260200160405190810160405280929190818152602001828054600181600116156101000203166002900480156104c45780601f10610499576101008083540402835291602001916104c4565b820191906000526020600020905b8154815290600101906020018083116104a757829003601f168201915b505050505090806001018054600181600116156101000203166002900480601f0160208091040260200160405190810160405280929190818152602001828054600181600116156101000203166002900480156105625780601f1061053757610100808354040283529160200191610562565b820191906000526020600020905b81548152906001019060200180831161054557829003601f168201915b505050505090806002018054600181600116156101000203166002900480601f0160208091040260200160405190810160405280929190818152602001828054600181600116156101000203166002900480156106005780601f106105d557610100808354040283529160200191610600565b820191906000526020600020905b8154815290600101906020018083116105e357829003601f168201915b5050505050905083565b60005481565b6001606060405190810160405280858152602001848152602001838152509080600181540180825580915050906001820390600052602060002090600302016000909192909190915060008201518160000190805190602001906106759291906106c8565b5060208201518160010190805190602001906106929291906106c8565b5060408201518160020190805190602001906106af9291906106c8565b5050505060016000808282540192505081905550505050565b828054600181600116156101000203166002900490600052602060002090601f016020900481019282601f1061070957805160ff1916838001178555610737565b82800160010185558215610737579182015b8281111561073657825182559160200191906001019061071b565b5b5090506107449190610748565b5090565b61076a91905b8082111561076657600081600090555060010161074e565b5090565b9056fea165627a7a72305820ac42b5c312d3c715ec089349dc3bc086af52cb72d26e0fcdf8f9ea80023675b00029",
  "source": "pragma solidity 0.5.0;\n\ncontract Docs {\n    uint256 public id;\n    Doc[] public docs;\n\n    struct Doc {\n        string name;\n        string timestamp;\n        string hash;\n    }\n    \n    function createDoc(string memory _name, string memory _timestamp, string memory _hash) public {\n        docs.push(Doc(_name, _timestamp, _hash));\n        id += 1;\n    }\n}\n",
  "sourcePath": "D:/toDelete/contracts/Docs.sol",
  "compiler": {
    "name": "solc",
    "version": "0.5.0+commit.1d4f565a.Emscripten.clang"
  },
  "schemaVersion": "3.0.0",
  "updatedAt": "2019-01-19T07:28:28.628Z",
  "devdoc": {
    "methods": {}
  },
  "userdoc": {
    "methods": {}
  }
}